:020000020000FC
:1000000031EE27EB57E34EE9E8E0EEBFEFEFEDBF4F
:100010003F932F930F92F7E11F2E8F916F917F9156
:100020007F936F938F93750F641F801D7F936F93E2
:100030008F931A941010F1CFE0E0F9E0D6E32D2E63
:10004000D3E0FD2ECEEFD1E001E115E07291629197
:100050008291370E461E581E360C471C581C932C96
:10006000A42CB52C331CA7FA30F8441C97FA40F89E
:10007000FA94A9F7E19041923192C290C290C29055
:10008000630C741C851C79916991670E761E801C27
:1000900061E170E00E943F01962CA72C661CA7FA34
:1000A00060F8771C97FA70F8AA95B1F7699279927F
:1000B000CA90CA900A9500192FB721FD0E946F01BE
:1000C0001A9510192FB721FD0E9473012A94201050
:1000D000BDCFE0E0F9E0C0E0D8E020E5C290C992F1
:1000E0002A952011FBCFC0E0D8E0E0E0F6E0A0E0E8
:1000F000B5E005E010E527E939E801931193B290E6
:10010000B2902D933D93BE90BE9011903990130CF8
:1001100021904990241CC990C290C29011922192C2
:100120001D903990130C2D904990241CC990CE90AD
:10013000CE901D922D9239E041E026E050E83290B9
:1001400022904E905E902524342460E170E0652C6E
:10015000742C0E945901922CA32C221CA7FA20F87F
:10016000331C97FA30F86A94B1F7B990C9902B0C08
:100170003C1CC190C190CD90CD90219231925E9067
:100180004E904224532460E170E0622C732C0E9454
:100190005901942CA52C441CA7FA40F8551C97FA39
:1001A00050F86A94B1F7B990B990C9904B0C5C1CA7
:1001B000C990CD90CD904D925D9243954313BFCFA2
:1001C00048E0002432E03E902E9042905290BA9047
:1001D000CA90BA902B183C0860E170E0652C742C32
:1001E0000E945901922CA32C2794A0FA27F8379447
:1001F00090FA37F86A94B1F7252434243E922E926F
:1002000051904190BA90CA90BA905B184C0860E146
:1002100070E06D907D900E945901952CA42C57940C
:10022000A0FA57F8479490FA47F86A94B1F77E908D
:100230006E906D907D9056244724C290C290429259
:100240005292C190C1904A952FB721FFBCCFC0E018
:10025000D8E0E0E0F6E0A0E0B5E0A190B190399000
:100260004990A318B408B292A2921D902D90C99003
:1002700039904990131824082E921E92FFCFAA1B82
:10028000BB1BD62CE72C81E107C0AA1FBB1FA617FA
:10029000B70710F0A61BB70B661C771C8A95A9F749
:1002A00060947094662D772D6A2E7B2E6D2C7E2C9B
:1002B0000895001B111B81E107C0001F111F0617C5
:1002C000170710F0061B170B661C771C8A95A9F7F9
:1002D00060947094662D772D602E712E089501E143
:1002E000E0E0F9E0089515E0CEEFD1E0089581FB5C
:0802F00070F8089560E808951C
:00000001FF
